{
  "_format": "hh-sol-artifact-1",
  "contractName": "LostFound",
  "sourceName": "contracts/LostFound.sol",
  "abi": [
    {
      "anonymous": false,
      "inputs": [
        {
          "indexed": false,
          "internalType": "uint256",
          "name": "id",
          "type": "uint256"
        },
        {
          "indexed": true,
          "internalType": "address",
          "name": "claimer",
          "type": "address"
        }
      ],
      "name": "ItemClaimed",
      "type": "event"
    },
    {
      "anonymous": false,
      "inputs": [
        {
          "indexed": false,
          "internalType": "uint256",
          "name": "id",
          "type": "uint256"
        },
        {
          "indexed": true,
          "internalType": "address",
          "name": "owner",
          "type": "address"
        }
      ],
      "name": "ItemReported",
      "type": "event"
    },
    {
      "inputs": [
        {
          "internalType": "uint256",
          "name": "_id",
          "type": "uint256"
        },
        {
          "internalType": "string",
          "name": "_secretPhrase",
          "type": "string"
        }
      ],
      "name": "claimItem",
      "outputs": [
        {
          "internalType": "bool",
          "name": "",
          "type": "bool"
        }
      ],
      "stateMutability": "view",
      "type": "function"
    },
    {
      "inputs": [
        {
          "internalType": "uint256",
          "name": "_id",
          "type": "uint256"
        }
      ],
      "name": "getItem",
      "outputs": [
        {
          "internalType": "string",
          "name": "",
          "type": "string"
        },
        {
          "internalType": "string",
          "name": "",
          "type": "string"
        },
        {
          "internalType": "bool",
          "name": "",
          "type": "bool"
        }
      ],
      "stateMutability": "view",
      "type": "function"
    },
    {
      "inputs": [],
      "name": "itemCount",
      "outputs": [
        {
          "internalType": "uint256",
          "name": "",
          "type": "uint256"
        }
      ],
      "stateMutability": "view",
      "type": "function"
    },
    {
      "inputs": [
        {
          "internalType": "uint256",
          "name": "",
          "type": "uint256"
        }
      ],
      "name": "items",
      "outputs": [
        {
          "internalType": "uint256",
          "name": "id",
          "type": "uint256"
        },
        {
          "internalType": "string",
          "name": "description",
          "type": "string"
        },
        {
          "internalType": "string",
          "name": "imageHash",
          "type": "string"
        },
        {
          "internalType": "bytes32",
          "name": "secretHash",
          "type": "bytes32"
        },
        {
          "internalType": "address",
          "name": "owner",
          "type": "address"
        },
        {
          "internalType": "bool",
          "name": "isFound",
          "type": "bool"
        }
      ],
      "stateMutability": "view",
      "type": "function"
    },
    {
      "inputs": [
        {
          "internalType": "uint256",
          "name": "_id",
          "type": "uint256"
        },
        {
          "internalType": "string",
          "name": "_secretPhrase",
          "type": "string"
        }
      ],
      "name": "markAsFound",
      "outputs": [],
      "stateMutability": "nonpayable",
      "type": "function"
    },
    {
      "inputs": [
        {
          "internalType": "string",
          "name": "_description",
          "type": "string"
        },
        {
          "internalType": "string",
          "name": "_imageHash",
          "type": "string"
        },
        {
          "internalType": "bytes32",
          "name": "_secretHash",
          "type": "bytes32"
        }
      ],
      "name": "reportLostItem",
      "outputs": [],
      "stateMutability": "nonpayable",
      "type": "function"
    }
  ],
  "bytecode": "0x608060405260008055348015601357600080fd5b50611321806100236000396000f3fe608060405234801561001057600080fd5b50600436106100625760003560e01c80633129e7731461006757806335ffa3d0146100995780636bfb0d01146100c95780638c9ec53d146100e7578063b662403114610103578063bfb231d21461011f575b600080fd5b610081600480360381019061007c91906109f8565b610154565b60405161009093929190610ad0565b60405180910390f35b6100b360048036038101906100ae9190610c4a565b610340565b6040516100c09190610ca6565b60405180910390f35b6100d1610586565b6040516100de9190610cd0565b60405180910390f35b61010160048036038101906100fc9190610d21565b61058c565b005b61011d60048036038101906101189190610c4a565b6106fe565b005b610139600480360381019061013491906109f8565b610835565b60405161014b96959493929190610dfc565b60405180910390f35b606080600080600160008681526020019081526020016000206040518060c00160405290816000820154815260200160018201805461019290610e9a565b80601f01602080910402602001604051908101604052809291908181526020018280546101be90610e9a565b801561020b5780601f106101e05761010080835404028352916020019161020b565b820191906000526020600020905b8154815290600101906020018083116101ee57829003601f168201915b5050505050815260200160028201805461022490610e9a565b80601f016020809104026020016040519081016040528092919081815260200182805461025090610e9a565b801561029d5780601f106102725761010080835404028352916020019161029d565b820191906000526020600020905b81548152906001019060200180831161028057829003601f168201915b50505050508152602001600382015481526020016004820160009054906101000a900473ffffffffffffffffffffffffffffffffffffffff1673ffffffffffffffffffffffffffffffffffffffff1673ffffffffffffffffffffffffffffffffffffffff1681526020016004820160149054906101000a900460ff1615151515815250509050806020015181604001518260a00151935093509350509193909250565b600080548310610385576040517f08c379a000000000000000000000000000000000000000000000000000000000815260040161037c90610f17565b60405180910390fd5b6000600160008581526020019081526020016000206040518060c0016040529081600082015481526020016001820180546103bf90610e9a565b80601f01602080910402602001604051908101604052809291908181526020018280546103eb90610e9a565b80156104385780601f1061040d57610100808354040283529160200191610438565b820191906000526020600020905b81548152906001019060200180831161041b57829003601f168201915b5050505050815260200160028201805461045190610e9a565b80601f016020809104026020016040519081016040528092919081815260200182805461047d90610e9a565b80156104ca5780601f1061049f576101008083540402835291602001916104ca565b820191906000526020600020905b8154815290600101906020018083116104ad57829003601f168201915b50505050508152602001600382015481526020016004820160009054906101000a900473ffffffffffffffffffffffffffffffffffffffff1673ffffffffffffffffffffffffffffffffffffffff1673ffffffffffffffffffffffffffffffffffffffff1681526020016004820160149054906101000a900460ff16151515158152505090508060600151836040516020016105669190610f73565b604051602081830303815290604052805190602001201491505092915050565b60005481565b6040518060c0016040528060005481526020018481526020018381526020018281526020013373ffffffffffffffffffffffffffffffffffffffff1681526020016000151581525060016000805481526020019081526020016000206000820151816000015560208201518160010190816106079190611136565b50604082015181600201908161061d9190611136565b506060820151816003015560808201518160040160006101000a81548173ffffffffffffffffffffffffffffffffffffffff021916908373ffffffffffffffffffffffffffffffffffffffff16021790555060a08201518160040160146101000a81548160ff0219169083151502179055509050503373ffffffffffffffffffffffffffffffffffffffff167fa1c565099f2d5df88ace4016dd17b5b3937a665cf132767356c348805a0a9a366000546040516106da9190610cd0565b60405180910390a26000808154809291906106f490611237565b9190505550505050565b6000548210610742576040517f08c379a000000000000000000000000000000000000000000000000000000000815260040161073990610f17565b60405180910390fd5b600060016000848152602001908152602001600020905080600301548260405160200161076f9190610f73565b60405160208183030381529060405280519060200120146107c5576040517f08c379a00000000000000000000000000000000000000000000000000000000081526004016107bc906112cb565b60405180910390fd5b60018160040160146101000a81548160ff0219169083151502179055503373ffffffffffffffffffffffffffffffffffffffff167ff13adb02c379c5db4cd5a23aa9bca3fd0b3e0017c82d0aac2e656994f24d0535846040516108289190610cd0565b60405180910390a2505050565b600160205280600052604060002060009150905080600001549080600101805461085e90610e9a565b80601f016020809104026020016040519081016040528092919081815260200182805461088a90610e9a565b80156108d75780601f106108ac576101008083540402835291602001916108d7565b820191906000526020600020905b8154815290600101906020018083116108ba57829003601f168201915b5050505050908060020180546108ec90610e9a565b80601f016020809104026020016040519081016040528092919081815260200182805461091890610e9a565b80156109655780601f1061093a57610100808354040283529160200191610965565b820191906000526020600020905b81548152906001019060200180831161094857829003601f168201915b5050505050908060030154908060040160009054906101000a900473ffffffffffffffffffffffffffffffffffffffff16908060040160149054906101000a900460ff16905086565b6000604051905090565b600080fd5b600080fd5b6000819050919050565b6109d5816109c2565b81146109e057600080fd5b50565b6000813590506109f2816109cc565b92915050565b600060208284031215610a0e57610a0d6109b8565b5b6000610a1c848285016109e3565b91505092915050565b600081519050919050565b600082825260208201905092915050565b60005b83811015610a5f578082015181840152602081019050610a44565b60008484015250505050565b6000601f19601f8301169050919050565b6000610a8782610a25565b610a918185610a30565b9350610aa1818560208601610a41565b610aaa81610a6b565b840191505092915050565b60008115159050919050565b610aca81610ab5565b82525050565b60006060820190508181036000830152610aea8186610a7c565b90508181036020830152610afe8185610a7c565b9050610b0d6040830184610ac1565b949350505050565b600080fd5b600080fd5b7f4e487b7100000000000000000000000000000000000000000000000000000000600052604160045260246000fd5b610b5782610a6b565b810181811067ffffffffffffffff82111715610b7657610b75610b1f565b5b80604052505050565b6000610b896109ae565b9050610b958282610b4e565b919050565b600067ffffffffffffffff821115610bb557610bb4610b1f565b5b610bbe82610a6b565b9050602081019050919050565b82818337600083830152505050565b6000610bed610be884610b9a565b610b7f565b905082815260208101848484011115610c0957610c08610b1a565b5b610c14848285610bcb565b509392505050565b600082601f830112610c3157610c30610b15565b5b8135610c41848260208601610bda565b91505092915050565b60008060408385031215610c6157610c606109b8565b5b6000610c6f858286016109e3565b925050602083013567ffffffffffffffff811115610c9057610c8f6109bd565b5b610c9c85828601610c1c565b9150509250929050565b6000602082019050610cbb6000830184610ac1565b92915050565b610cca816109c2565b82525050565b6000602082019050610ce56000830184610cc1565b92915050565b6000819050919050565b610cfe81610ceb565b8114610d0957600080fd5b50565b600081359050610d1b81610cf5565b92915050565b600080600060608486031215610d3a57610d396109b8565b5b600084013567ffffffffffffffff811115610d5857610d576109bd565b5b610d6486828701610c1c565b935050602084013567ffffffffffffffff811115610d8557610d846109bd565b5b610d9186828701610c1c565b9250506040610da286828701610d0c565b9150509250925092565b610db581610ceb565b82525050565b600073ffffffffffffffffffffffffffffffffffffffff82169050919050565b6000610de682610dbb565b9050919050565b610df681610ddb565b82525050565b600060c082019050610e116000830189610cc1565b8181036020830152610e238188610a7c565b90508181036040830152610e378187610a7c565b9050610e466060830186610dac565b610e536080830185610ded565b610e6060a0830184610ac1565b979650505050505050565b7f4e487b7100000000000000000000000000000000000000000000000000000000600052602260045260246000fd5b60006002820490506001821680610eb257607f821691505b602082108103610ec557610ec4610e6b565b5b50919050565b7f4974656d206e6f7420666f756e64000000000000000000000000000000000000600082015250565b6000610f01600e83610a30565b9150610f0c82610ecb565b602082019050919050565b60006020820190508181036000830152610f3081610ef4565b9050919050565b600081905092915050565b6000610f4d82610a25565b610f578185610f37565b9350610f67818560208601610a41565b80840191505092915050565b6000610f7f8284610f42565b915081905092915050565b60008190508160005260206000209050919050565b60006020601f8301049050919050565b600082821b905092915050565b600060088302610fec7fffffffffffffffffffffffffffffffffffffffffffffffffffffffffffffffff82610faf565b610ff68683610faf565b95508019841693508086168417925050509392505050565b6000819050919050565b600061103361102e611029846109c2565b61100e565b6109c2565b9050919050565b6000819050919050565b61104d83611018565b6110616110598261103a565b848454610fbc565b825550505050565b600090565b611076611069565b611081818484611044565b505050565b5b818110156110a55761109a60008261106e565b600181019050611087565b5050565b601f8211156110ea576110bb81610f8a565b6110c484610f9f565b810160208510156110d3578190505b6110e76110df85610f9f565b830182611086565b50505b505050565b600082821c905092915050565b600061110d600019846008026110ef565b1980831691505092915050565b600061112683836110fc565b9150826002028217905092915050565b61113f82610a25565b67ffffffffffffffff81111561115857611157610b1f565b5b6111628254610e9a565b61116d8282856110a9565b600060209050601f8311600181146111a0576000841561118e578287015190505b611198858261111a565b865550611200565b601f1984166111ae86610f8a565b60005b828110156111d6578489015182556001820191506020850194506020810190506111b1565b868310156111f357848901516111ef601f8916826110fc565b8355505b6001600288020188555050505b505050505050565b7f4e487b7100000000000000000000000000000000000000000000000000000000600052601160045260246000fd5b6000611242826109c2565b91507fffffffffffffffffffffffffffffffffffffffffffffffffffffffffffffffff820361127457611273611208565b5b600182019050919050565b7f496e76616c696420736563726574000000000000000000000000000000000000600082015250565b60006112b5600e83610a30565b91506112c08261127f565b602082019050919050565b600060208201905081810360008301526112e4816112a8565b905091905056fea26469706673582212202f3c6a9b6133af1af4b5b8b9e9d261321d1bcd1eaa08a283b64541fb09b1fd9864736f6c634300081c0033",
  "linkReferences": {},
  "deployedLinkReferences": {}
}